:03000000020100FA
:0F0100007520FD7521FB7522F87523FF7524FF0F
:0F010F007525FF7526FF7527FF85202885212977
:0F011E0085222A85232B85242C85252D85262EA9
:10012D0085272F0201337F0012013A80F912015DFC
:10013D001202010FBF40F6852820852921852A222C
:10014D00852B23852C24852D25852E26852F27224D
:0F015D0075B0FE8520A075A0FF75B0FD8521A0AF
:0F016C0075A0FF75B0FB8522A075A0FF75B0F7D9
:0F017B008523A075A0FF75B0EF8524A075A0FFA8
:0F018A0075B0DF8525A075A0FF75B0BF8526A0D5
:0E01990075A0FF75B07F8527A075A0FF22E935
:0E01A70075F00284B40106E5F0B4000122E90F
:1001B50075F00384B4013AE5F0B4003522BE0003BE
:0F01C5008528B0BE01038529B0BE0203852AB08C
:0F01D400BE0303852BB0BE0403852CB0BE05030C
:1001E300852DB0BE0603852EB0BE0703852FB02232
:1001F30031A62231C2BD0063B2B01202C8227A0016
:10020300EF75F00884FEADF01E1202971D1202F97D
:100213000D1202F90D1202F90E1202971202F90ED3
:0F0223001202971202F91D1202F91D1202F91EA2
:0F0232001202971202F912023C22EAF97A000D29
:100241001202F9BA00ACE975F00384B40147E5F094
:10025100B4004231C2BD0005B2B01202C8BD0105F1
:10026100B2B11202C8BD0205B2B21202C8BD030585
:10027100B2B31202C8BD0405B2B41202C8BD05056D
:10028100B2B51202C8BD0605B2B61202C8BD070555
:0F029100B2B71202C822BE00038520B0BE01031F
:0F02A0008521B0BE02038522B0BE03038523B0C3
:0F02AF00BE04038524B0BE05038525B0BE06033B
:1002BE008526B0BE07038527B022BE000385B02871
:0F02CE00BE010385B029BE020385B02ABE03031B
:0F02DD0085B02BBE040385B02CBE050385B02D64
:0E02EC00BE060385B02EBE070385B02F22EE9E
:0F02FA0075F0FF84B40053ED75F0FF84B4004B32
:0F030900BD0006A2B0B350430ABD0106A2B1B3B6
:0F031800503A0ABD0206A2B2B350310ABD030625
:0F032700A2B3B350280ABD0406A2B4B3501F0AF4
:0F033600BD0506A2B5B350160ABD0606A2B6B3A2
:10034500500D0ABD0706A2B7B350040A0203542292
:08035500BC00FCBB00F90A2208
:00000001FF
