:03000000020100FA
:1001000075A0F875B0FD0201097F0012011080F999
:0F0110001201190FBF40F92222EF75F00884FE8B
:10011F00ADF01E1D1201DA0D1201DA0D1201DA0E09
:10012F001201DA0E1201DA1D1201DA1D1201DA1EA6
:0F013F001201DA12014622EAF97A000D1201DAF2
:10014E00BA00C7E975F00384B40155E5F0B4005068
:0F015E00BE0007B2B0BD0049B2A0BE0107B2B1EA
:0F016D00BD003FB2A0BE0207B2B2BD0035B2A0C6
:0F017C00BE0307B2B3BD002BB2A0BE0407B2B4DE
:0F018B00BD0021B2A0BE0507B2B5BD0017B2A0DE
:0F019A00BE0607B2B6BD000DB2A0BE0207B2B7D7
:0F01A900BD0003B2A022BD0103B2A122BD02031B
:0F01B800B2A222BD0303B2A322BD0403B2A4224C
:0F01C700BD0503B2A522BD0603B2A622BD0703E4
:1001D600B2A72222EE75F0FF84B40063ED75F0FF3E
:0F01E60084B4005BBE0008A2B0B35053020246BF
:1001F500BE0108A2B1B35048020246BE0208A2B22F
:0E020500B3503D020246BE0308A2B3B350320E
:0E021300020246BE0408A2B4B35027020246FF
:10022100BE0508A2B5B3501C020246BE0608A2B61E
:0E023100B35011020246BE0708A2B7B3500632
:10023F0002024602024522BD0007A2A0B350F70AF0
:10024F0022BD0107A2A1B350ED0A22BD0207A2A24F
:0F025F00B350E30A22BD0307A2A3B350D90A226A
:10026E00BD0407A2A4B350CF0A22BD0507A2A5B3B1
:0E027E0050C50A22BD0607A2A6B350BB0A2235
:0F028C00BD0707A2A7B350B10A2280ADBC00AADC
:05029B00BB00A70A22D0
:00000001FF
