:03000000020100FA
:0F0100007520FF7521F87522FF7523FF7524FF09
:0F010F007525FF7526FF7527FF7528FF7529FFDA
:0F011E00752AFF752BFF752CFF752DFF752EFFB2
:10012D00752FFF0201337F0012013A80F91201751C
:10013D001201BE0FBF40F6852820852921852A2270
:0F014D00852B23852C24852D25852E26852F2770
:0F015C007528FF7529FF752AFF752BFF752CFF7E
:10016B00752DFF752EFF752FFF2275B0FE8520A014
:0F017B0075A0FF75B0FD8521A075A0FF75B0FBC5
:0F018A008522A075A0FF75B0F78523A075A0FF93
:0F01990075B0EF8524A075A0FF75B0DF8525A098
:0F01A80075A0FF75B0BF8526A075A0FF75B07F4D
:0F01B7008527A075A0FF227A00EF75F00884FE5F
:0F01C600ADF01E1202551D1202B70D1202B70D39
:0E01D5001202B70E1202551202B70E12025598
:0F01E3001202B71D1202B71D1202B71E120255EB
:0F01F2001202B71201F922EAF97A000D1202B7D0
:10020100BA00B9E975F00384B40148E5F0B40043DC
:10021100120255BD0005B2B7120286BD0105B2B684
:10022100120286BD0205B2B5120286BD0305B2B443
:10023100120286BD0405B2B3120286BD0505B2B233
:10024100120286BD0605B2B1120286BD0205B2B028
:1002510012028622BE00038520B0BE01038521B0B3
:0F026100BE02038522B0BE03038523B0BE040393
:0F0270008524B0BE05038525B0BE06038526B0E4
:10027F00BE07038527B022BE000385B028BE010349
:0F028F0085B029BE020385B02ABE030385B02BBC
:0F029E00BE040385B02CBE050385B02DBE06033C
:0F02AD0085B02EBE070385B02F22EE75F0FF84BB
:1002BC00B40053ED75F0FF84B4004BBE0006A2B041
:1002CC00B350430ABE0106A2B1B3503A0ABE0206AD
:0F02DC00A2B2B350310ABE0306A2B3B350280A30
:0F02EB00BE0406A2B4B3501F0ABE0506A2B5B3E7
:0F02FA0050160ABE0606A2B6B3500D0ABE07067E
:10030900A2B7B350040A02031222BC00FCBB00F9D5
:020319000A22B6
:00000001FF
