:03000000020100FA
:0F0100007520FF7521F87522FF7523FF7524FF09
:0E010F007525FF7526FF7527FF02011B7F0077
:10011D0012012280F912012D1201760FBF40F62235
:0F012D0075B0FE8520A075A0FF75B0FD8521A0DF
:0F013C0075A0FF75B0FB8522A075A0FF75B0F709
:0F014B008523A075A0FF75B0EF8524A075A0FFD8
:0F015A0075B0DF8525A075A0FF75B0BF8526A005
:0E01690075A0FF75B07F8527A075A0FF22EF5F
:1001770075F00884FEADF01E1201F61D1202580D2F
:0F0187001202580D1202580E1201F61202580EF3
:0F0196001201F61202581D1202581D1202581EB5
:0F01A5001201F61202581201AF22EAF97A000D88
:1001B400120258BA00BBE975F00384B40133E5F0C8
:0E01C400B4002E1201F6BE0005B2B0120227E2
:0F01D200BE0102B2B1BE0202B2B2BE0302B2B3AC
:0F01E100BE0402B2B4BE0502B2B5BE0602B2B68B
:0F01F000BE0202B2B722BD00038520B0BD0103DD
:0F01FF008521B0BD02038522B0BD03038523B067
:0F020E00BD04038524B0BD05038525B0BD0603DF
:10021D008526B0BD07038527B022BD000385B0201C
:0F022D00BD010385B021BD020385B022BD0303CF
:0F023C0085B023BD040385B024BD050385B0251F
:0E024B00BD060385B026BD070385B02722EE51
:0F02590075F0FF84B40053ED75F0FF84B4004BD3
:0F026800BE0006A2B0B350430ABE0106A2B1B356
:0F027700503A0ABE0206A2B2B350310ABE0306C5
:0F028600A2B3B350280ABE0406A2B4B3501F0A95
:0F029500BE0506A2B5B350160ABE0606A2B6B342
:1002A400500D0ABE0706A2B7B350040A0202B322D5
:0802B400BC00FCBB00F90A22AA
:00000001FF
